:0400000007EF00F016
:0A0008004C8295ED0AF0DEEF0BF0DC
:1008000000546573746520436F6E762E2041444317
:10081000200053696E616C204972200053696E613B
:100820006C205672200053696E616C204973200061
:1008300053696E616C205673200053696E616C20A1
:100840004974200053696E616C20567420004E720A
:100850003A2000560000150E486E4B0E476EBE0E35
:10086000E82EFED7472EFCD7482EFAD700D0150E1B
:10087000486E4B0E476EBE0EE82EFED7472EFCD7B5
:10088000482EFAD700D0150E486E4B0E476EBE0E9E
:10089000E82EFED7472EFCD7482EFAD700D0E3EC3F
:1008A0000AF0150E486E4B0E476EBE0EE82EFED7B0
:1008B000472EFCD7482EFAD700D0150E486E4B0EA7
:1008C000476EBE0EE82EFED7472EFCD7482EFAD72D
:1008D00000D0D1EC0BF0800EE5EC0BF04E0E156E57
:1008E000080E166EA9EC0BF0850E3C6E6B0E3D6E7D
:1008F0003F0E3E6E71EC06F0150E486E4B0E476EC5
:10090000BE0EE82EFED7472EFCD7482EFAD700D0D1
:10091000150E486E4B0E476EBE0EE82EFED7472EC4
:10092000FCD7482EFAD700D0800EE5EC0BF0010E74
:10093000156E080E166EA9EC0BF0000E216EA00EBF
:10094000226E400E236E000E79EC0BF013C01BF0EC
:1009500014C01CF0BFEC0BF01BC01EF01CC01FF03D
:100960001DC020F095EC08F01EC02DF01FC02EF029
:1009700020C02FF0C00E306E7F0E316E440E326EEE
:100980000FEC09F02DC049F02EC04AF02FC04BF0FB
:10099000C00EE5EC0BF0120E156E080E166E93EC01
:1009A0000BF049C03CF04AC03DF04BC03EF071EC4A
:1009B00006F0530E156E080E166E93EC0BF0150E26
:1009C000486E4B0E476EBE0EE82EFED7472EFCD764
:1009D000482EFAD700D0000E216EA00E226E400ED7
:1009E000236E010E79EC0BF013C01BF014C01CF049
:1009F000BFEC0BF01BC01EF01CC01FF01DC020F090
:100A000095EC08F01EC02DF01FC02EF020C02FF076
:100A1000C00E306E7F0E316E440E326E0FEC09F058
:100A20002DC049F02EC04AF02FC04BF0C00EE5ECAF
:100A30000BF0260E156E080E166E93EC0BF049C0E7
:100A40003CF04AC03DF04BC03EF071EC06F0530E56
:100A5000156E080E166E93EC0BF0150E486E4B0ECD
:100A6000476EBE0EE82EFED7472EFCD7482EFAD78B
:100A700000D0000E216EA00E226E400E236E020EDC
:100A800079EC0BF013C01BF014C01CF0BFEC0BF0A2
:100A90001BC01EF01CC01FF01DC020F095EC08F01C
:100AA0001EC02DF01FC02EF020C02FF0C00E306EE3
:100AB0007F0E316E440E326E0FEC09F02DC049F0FE
:100AC0002EC04AF02FC04BF0C00EE5EC0BF03A0EF2
:100AD000156E080E166E93EC0BF049C03CF04AC040
:100AE0003DF04BC03EF071EC06F0530E156E080E53
:100AF000166E93EC0BF0150E486E4B0E476EBE0E45
:100B0000E82EFED7472EFCD7482EFAD700D0000E8D
:100B1000216EA00E226E400E236E030E79EC0BF0B8
:100B200013C01BF014C01CF0BFEC0BF01BC01EF078
:100B30001CC01FF01DC020F095EC08F01EC02DF069
:100B40001FC02EF020C02FF0C00E306E7F0E316E11
:100B5000440E326E0FEC09F02DC049F02EC04AF061
:100B60002FC04BF0C00EE5EC0BF01C0E156E080EFE
:100B7000166E93EC0BF049C03CF04AC03DF04BC000
:100B80003EF071EC06F0530E156E080E166E93ECE7
:100B90000BF0150E486E4B0E476EBE0EE82EFED7BC
:100BA000472EFCD7482EFAD700D0000E216EA00E9B
:100BB000226E400E236E040E79EC0BF013C01BF076
:100BC00014C01CF0BFEC0BF01BC01EF01CC01FF0CB
:100BD0001DC020F095EC08F01EC02DF01FC02EF0B7
:100BE00020C02FF0C00E306E7F0E316E440E326E7C
:100BF0000FEC09F02DC049F02EC04AF02FC04BF089
:100C0000C00EE5EC0BF0300E156E080E166E93EC70
:100C10000BF049C03CF04AC03DF04BC03EF071ECD7
:100C200006F0530E156E080E166E93EC0BF0150EB3
:100C3000486E4B0E476EBE0EE82EFED7472EFCD7F1
:100C4000482EFAD700D0000E216EA00E226E400E64
:100C5000236E050E79EC0BF013C01BF014C01CF0D2
:100C6000BFEC0BF01BC01EF01CC01FF01DC020F01D
:100C700095EC08F01EC02DF01FC02EF020C02FF004
:100C8000C00E306E7F0E316E440E326E0FEC09F0E6
:100C90002DC049F02EC04AF02FC04BF0C00EE5EC3D
:100CA0000BF0440E156E080E166E93EC0BF049C057
:100CB0003CF04AC03DF04BC03EF071EC06F0530EE4
:100CC000156E080E166E93EC0BF0150E486E4B0E5B
:100CD000476EBE0EE82EFED7472EFCD7482EFAD719
:100CE00022D68A88000E216EC80E226E420E236E16
:100CF0003CC01EF03DC01FF03EC020F095EC08F057
:100D00001EC02DF01FC02EF020C02FF01BEC08F0ED
:100D10002DC043F02EC044F02FC045F030C046F047
:100D20003EAE1DD043C013F044C014F045C015F0D2
:100D300046C016F0FF0E176EFF0E186EFF0E196EEE
:100D4000FF0E1A6E29EC0BF013C043F014C044F0F0
:100D500015C045F016C046F02D0E54EC0BF046BE03
:100D6000B2D04650451006E1E90E435C030E4458EC
:100D7000D8A0A9D046BE58D04650451006E1110E65
:100D8000435C270E4458D8A04FD0A00E176E860E95
:100D9000186E010E196E000E1A6E43C013F044C097
:100DA00014F045C015F046C016F03FEC0AF013C031
:100DB0003FF014C040F015C041F016C042F0100ED4
:100DC000176E270E186E000E196E000E1A6E43C0B5
:100DD00013F044C014F045C015F046C016F03FECC7
:100DE0000AF0131E141E151E161E132A000E1422BE
:100DF0001522162213503F241D6E145040201E6EE3
:100E0000155041201F6E16504220206E100E216E8C
:100E1000270E226E000E236E000E246E82EC09F067
:100E20001D50300F54EC0BF0100E176E270E186E7D
:100E3000000E196E000E1A6E43C013F044C014F079
:100E400045C015F046C016F03FEC0AF013C03FF065
:100E500014C040F015C041F016C042F0E80E176E05
:100E6000030E186E000E196E000E1A6E43C013F0BA
:100E700044C014F045C015F046C016F03FEC0AF02F
:100E8000131E141E151E161E132A000E14221522E0
:100E9000162213503F241D6E145040201E6E155014
:100EA00041201F6E16504220206EE80E216E030E68
:100EB000226E000E236E000E246E82EC09F01D508F
:100EC000300F54EC0BF0E80E176E030E186E000E88
:100ED000196E000E1A6E43C013F044C014F045C0E2
:100EE00015F046C016F03FEC0AF013C03FF014C0F6
:100EF00040F015C041F016C042F0640E176E000EAF
:100F0000186E000E196E000E1A6E43C013F044C026
:100F100014F045C015F046C016F03FEC0AF0131E61
:100F2000141E151E161E132A000E14221522162238
:100F300013503F241D6E145040201E6E155041204A
:100F40001F6E16504220206E640E216E000E226E1F
:100F5000000E236E000E246E82EC09F01D50300F3F
:100F600054EC0BF02E0E54EC0BF0640E176E000ECA
:100F7000186E000E196E000E1A6E43C013F044C0B6
:100F800014F045C015F046C016F03FEC0AF013C04F
:100F90003FF014C040F015C041F016C042F00A0EF8
:100FA000176E000E186E000E196E000E1A6E43C0FA
:100FB00013F044C014F045C015F046C016F03FECE5
:100FC0000AF0131E141E151E161E132A000E1422DC
:100FD0001522162213503F241D6E145040201E6E01
:100FE000155041201F6E16504220206E0A0E216EB1
:100FF000000E226E000E236E000E246E82EC09F0AD
:101000001D50300F54EC0BF043C013F044C014F0EB
:1010100045C015F046C016F00A0E176E000E186E89
:10102000000E196E000E1A6E3FEC0AF01350300FCE
:1010300054EC0BF012002FC031F0326A336A2E34B8
:10104000313601E3328031503B6E3B50D8A409D099
:10105000000E2D6E000E2E6E000E2F6E000E306EE6
:101060001200170E316E2DC032F02EC033F02FC09B
:1010700034F03128356E04D0D890343233323232E5
:10108000352EFAD73250366E2E8EFF0E2D16FF0EED
:101090002E16000E2F162D50376E2E50386E2F50F4
:1010A000396E3A6A8E0E3B5E3BAE16D03B50800ADC
:1010B0008F0FD8B009D0000E2D6E000E2E6E000ED0
:1010C0002F6E000E306E1200D8903A32393238321C
:1010D00037323B3EF9D715D0170E3B640FD0000EC8
:1010E0002D6E000E2E6E000E2F6E000E306E120052
:1010F000D8903736383639363A363B063B50D8A486
:10110000F7D73650D8B408D03A1E391E381E376C7F
:10111000000E382239223A2237C02DF038C02EF086
:1011200039C02FF03AC030F0120020C024F0256AF8
:10113000266A1F34243601E325802450276E275069
:10114000D8A407D0000E1E6E000E1F6E000E206E7B
:10115000120023C024F0256A266A2234243601E3D3
:10116000258024502C6E2C50D8A407D0000E1E6E63
:10117000000E1F6E000E206E12002C507B0F2726D3
:1011800020C02CF023502C1A800E2C161F8E228E7D
:10119000FF0E2116FF0E2216000E2316000E286EDB
:1011A000000E296E000E2A6E070E2B6E1EA006D0B2
:1011B000215028262250292223502A22D89020323A
:1011C0001F321E32D8902136223623362B2EEED7F0
:1011D000090E2B6E1EA006D021502826225029224F
:1011E00023502A22D89020321F321E32D8902A3221
:1011F000293228322B2EEED728C013F029C014F044
:101200002AC015F027C016F02CC017F0E8EC09F042
:1012100013C01EF014C01FF015C020F012002FC024
:1012200033F0346A356A2E34333601E33480335078
:101230003A6E3A50D8A407D0000E2D6E000E2E6ED6
:10124000000E2F6E120032C033F0346A356A31342A
:10125000333601E3348033503B6E3B50D8A407D083
:10126000000E2D6E000E2E6E000E2F6E1200000E60
:10127000376E000E386E000E396E3B50890F3A5EA5
:101280002FC03BF032503B1A800E3B162E8EFF0EC5
:101290002D16FF0E2E16000E2F16318EFF0E301655
:1012A000FF0E3116000E3216180E366ED8903736F5
:1012B0003836393630502D5C31502E5832502F5838
:1012C000D8A007D030502D5E31502E5A32502F5AB0
:1012D0003780D8902D362E362F36362EE7D737C0AA
:1012E00013F038C014F039C015F03AC016F03BC006
:1012F00017F0E8EC09F013C02DF014C02EF015C063
:101300002FF01200000E266E24AE0AD0241E231EDB
:10131000221E216C000E222223222422010E266E80
:1013200020AE0AD0201E1F1E1E1E1D6C000E1E2287
:101330001F222022010E261A000E276E000E286E94
:10134000000E296E000E2A6E215022102310241048
:10135000D8B42AD0010E256E06D0D8902136223678
:1013600023362436252A24AEF8D7D89027362836B7
:1013700029362A3621501D5C22501E5823501F58F2
:1013800024502058D8A009D021501D5E22501E5A4A
:1013900023501F5A2450205A2780D89024322332B9
:1013A00022322132252EE1D72650D8B408D02A1E69
:1013B000291E281E276C000E282229222A2227C037
:1013C0001DF028C01EF029C01FF02AC020F0120016
:1013D0001650D8B405D0135014101510D8A40CD042
:1013E000000E136E000E146E000E156E1200162AFB
:1013F000D890153214321332000E1314186E000EEA
:101400001414196EFE0E15141A6E185019101A10B5
:10141000D8B40CD0ECD7162A010E1326000E1422D5
:10142000000E1522D890153214321332000E131408
:10143000186E000E1414196EFF0E15141A6E185043
:1014400019101A10D8B406D0E6D71606D89013365D
:101450001436153614BE03D0020E1660F6D716A049
:10146000149ED8901632165015121750D8A4158E07
:1014700013C013F014C014F015C015F01200000EC4
:101480001C6E16AE0AD0161E151E141E136C000E0E
:10149000142215221622010E1C6E1AAE08D01A1E36
:1014A000191E181E176C000E182219221A22175026
:1014B000181019101A10D8B424D0010E1B6E06D0C3
:1014C000D8901736183619361A361B2A1AAEF8D79E
:1014D0001750135C18501458195015581A501658B4
:1014E000D8A008D01750135E1850145A1950155A26
:1014F0001A50165AD8901A321932183217321B2E37
:10150000E7D71C50D8B408D0161E151E141E136C35
:10151000000E14221522162213C013F014C014F06A
:1015200015C015F016C016F012000600FACF01F033
:10153000FBCF02F0E9CF03F0EACF04F0E1CF05F0F2
:10154000E2CF06F0D9CF07F0DACF08F0F3CF09F0F9
:10155000F4CF0AF0F6CF0BF0F7CF0CF0F8CF0DF088
:10156000F5CF0EF04CC00FF04DC010F04EC011F092
:101570004FC012F0F2B4EBEC0BF012C04FF011C000
:101580004EF010C04DF00FC04CF00EC0F5FF0DC076
:10159000F8FF0CC0F7FF0BC0F6FF0AC0F4FF09C04C
:1015A000F3FF08C0DAFF07C0D9FF06C0E2FF05C09D
:1015B000E1FF04C0EAFF03C0E9FF02C0FBFF01C076
:1015C000FAFF4C9211006D50070EB46EF80E946E37
:1015D000010E956E0F0E966EBF0E926E090EC16EC5
:1015E000860EC06EC00E936E8A9A8A98020E176E8F
:1015F000040E166EBA0EE82EFED7162EFCD7172E46
:10160000FAD700D0020E54EC0BF01A0E166EF80E3C
:10161000E82EFED7162EFCD700D0280E54EC0BF087
:10162000010E54EC0BF00C0E54EC0BF0060E54ECC7
:101630000BF0D1EC0BF00C0E54EC0BF0070ED56E4A
:10164000E00EF26E8C50010B8C6E8B50F80B8B6E93
:101650001200000E1B6E000E1C6E000E1D6E000EA2
:101660001E6E13A008D017501B2618501C221950AC
:101670001D221A501E22D8901736183619361A36DF
:10168000D89016321532143213321350141015102C
:101690001610D8A4E6D71BC013F01CC014F01DC050
:1016A00015F01EC016F01200146E14C013F0133A99
:1016B0000F0E13160F0E13168A50F00B13108A6EAE
:1016C000F1EC0BF0060EE82EFED700D014C013F09C
:1016D0000F0E13168A50F00B13108A6EF1EC0BF0FC
:1016E0001A0E136EF80EE82EFED7132EFCD700D07C
:1016F0001200176E1744E846FC0B0109C26EC28245
:10170000C2B2FED7C450030B186EC3CF19F01950E4
:1017100018C015F0166A15C016F0156A1510136E6C
:101720001650146E12008A880AD015C0F6FF16C033
:10173000F7FF0800F55054EC0BF0154A162A15C0B7
:10174000F6FF16C0F7FF0800F5500009D8B41200E4
:10175000ECD78A880AD015C0F6FF16C0F7FF08003C
:10176000F55054EC0BF0154A162A15C0F6FF16C0BA
:10177000F7FF0800F5500009D8B41200ECD71BC0E1
:1017800013F01CC014F0156A8E0E166E000E176E44
:10179000E8EC09F013C01BF014C01CF015C01DF0DC
:1017A00012008A98010E54EC0BF00B0E156E620EAF
:1017B000E82EFED7152EFCD700D012004C904C928C
:1017C000000EF86E00012BEF04F0156E8A9815508C
:1017D00054EC0BF01200F294D20ED66E390ED76E86
:0817E00012008A8A8A9A1200A5
:020000040020DA
:08000000FFFFFFFFFFFFFFFF00
:020000040030CA
:0E000000030C1E1EFF8301FF0FC00FE00F4018
:00000001FF
