:0400000007EF00F016
:0A0008003F82C2ED0BF077EF0DF020
:1008000000546573746520436F6E762E2041444317
:10081000200053696E616C204972200053696E613B
:100820006C205672200053696E616C204973200061
:1008300053696E616C205673200053696E616C20A1
:100840004974200053696E616C20567420004E720A
:100850003A2000560000150E0001956F4B0E946F64
:10086000BE0EE82EFED7942FFCD7952FFAD700F0B6
:10087000150E0001956F4B0E946FBE0EE82EFED73D
:10088000942FFCD7952FFAD700F0150E0001956F25
:100890004B0E946FBE0EE82EFED7942FFCD7952FEB
:1008A000FAD700F010EC0CF0150E0001956F4B0E0E
:1008B000946FBE0EE82EFED7942FFCD7952FFAD753
:1008C00000F0150E0001956F4B0E946FBE0EE82ED2
:1008D000FED7942FFCD7952FFAD700F061EC0DF0DE
:1008E000800E6FEC0DF04E0E0001626F080E636F0C
:1008F00024EC0DF0850E0001896F6B0E8A6F3F0EA0
:100900008B6F99EC06F0150E0001956F4B0E946FEE
:10091000BE0EE82EFED7942FFCD7952FFAD700F005
:10092000150E0001956F4B0E946FBE0EE82EFED78C
:10093000942FFCD7952FFAD700F0800E6FEC0DF0B6
:10094000010E0001626F080E636F24EC0DF0000EC3
:1009500000016E6FA00E6F6F400E706F000ED6EC30
:100960000CF060C068F061C069F03BEC0DF068C04D
:100970006BF069C06CF06AC06DF0BDEC09F06BC043
:100980007AF06CC07BF06DC07CF0C00E00017D6F12
:100990007F0E7E6F440E7F6F38EC0AF07AC096F0BF
:1009A0007BC097F07CC098F0C00E6FEC0DF0120E7B
:1009B0000001626F080E636F0DEC0DF096C089F0B8
:1009C00097C08AF098C08BF099EC06F0530E0001A6
:1009D000626F080E636F0DEC0DF0150E0001956F40
:1009E0004B0E946FBE0EE82EFED7942FFCD7952F9A
:1009F000FAD700F0000E00016E6FA00E6F6F400E70
:100A0000706F010ED6EC0CF060C068F061C069F048
:100A10003BEC0DF068C06BF069C06CF06AC06DF023
:100A2000BDEC09F06BC07AF06CC07BF06DC07CF05F
:100A3000C00E00017D6F7F0E7E6F440E7F6F38EC1D
:100A40000AF07AC096F07BC097F07CC098F0C00E98
:100A50006FEC0DF0260E0001626F080E636F0DEC57
:100A60000DF096C089F097C08AF098C08BF099EC91
:100A700006F0530E0001626F080E636F0DEC0DF06F
:100A8000150E0001956F4B0E946FBE0EE82EFED72B
:100A9000942FFCD7952FFAD700F0000E00016E6F4F
:100AA000A00E6F6F400E706F020ED6EC0CF060C09F
:100AB00068F061C069F03BEC0DF068C06BF069C094
:100AC0006CF06AC06DF0BDEC09F06BC07AF06CC0E0
:100AD0007BF06DC07CF0C00E00017D6F7F0E7E6FDD
:100AE000440E7F6F38EC0AF07AC096F07BC097F026
:100AF0007CC098F0C00E6FEC0DF03A0E0001626FF2
:100B0000080E636F0DEC0DF096C089F097C08AF067
:100B100098C08BF099EC06F0530E0001626F080E3E
:100B2000636F0DEC0DF0150E0001956F4B0E946F79
:100B3000BE0EE82EFED7942FFCD7952FFAD700F0E3
:100B4000000E00016E6FA00E6F6F400E706F030EEF
:100B5000D6EC0CF060C068F061C069F03BEC0DF0C1
:100B600068C06BF069C06CF06AC06DF0BDEC09F054
:100B70006BC07AF06CC07BF06DC07CF0C00E0001E1
:100B80007D6F7F0E7E6F440E7F6F38EC0AF07AC067
:100B900096F07BC097F07CC098F0C00E6FEC0DF023
:100BA0001C0E0001626F080E636F0DEC0DF096C015
:100BB00089F097C08AF098C08BF099EC06F0530E3C
:100BC0000001626F080E636F0DEC0DF0150E000151
:100BD000956F4B0E946FBE0EE82EFED7942FFCD768
:100BE000952FFAD700F0000E00016E6FA00E6F6F08
:100BF000400E706F040ED6EC0CF060C068F061C05F
:100C000069F03BEC0DF068C06BF069C06CF06AC035
:100C10006DF0BDEC09F06BC07AF06CC07BF06DC07C
:100C20007CF0C00E00017D6F7F0E7E6F440E7F6FE3
:100C300038EC0AF07AC096F07BC097F07CC098F050
:100C4000C00E6FEC0DF0300E0001626F080E636F86
:100C50000DEC0DF096C089F097C08AF098C08BF02B
:100C600099EC06F0530E0001626F080E636F0DECF5
:100C70000DF0150E0001956F4B0E946FBE0EE82E11
:100C8000FED7942FFCD7952FFAD700F0000E000165
:100C90006E6FA00E6F6F400E706F050ED6EC0CF0ED
:100CA00060C068F061C069F03BEC0DF068C06BF0AB
:100CB00069C06CF06AC06DF0BDEC09F06BC07AF0F1
:100CC0006CC07BF06DC07CF0C00E00017D6F7F0EAC
:100CD0007E6F440E7F6F38EC0AF07AC096F07BC0CE
:100CE00097F07CC098F0C00E6FEC0DF0440E000140
:100CF000626F080E636F0DEC0DF096C089F097C01F
:100D00008AF098C08BF099EC06F0530E0001626FE8
:100D1000080E636F0DEC0DF0150E0001956F4B0E74
:100D2000946FBE0EE82EFED7942FFCD7952FFAD7DE
:100D300003D68A88000E00016E6FC80E6F6F420ED8
:100D4000706F89C06BF08AC06CF08BC06DF0BDEC29
:100D500009F06BC07AF06CC07BF06DC07CF041ECA8
:100D600009F07AC090F07BC091F07CC092F07DC019
:100D700093F000018BAF1DD090C060F091C061F086
:100D800092C062F093C063F0FF0E646FFF0E656F58
:100D9000FF0E666FFF0E676F58EC0CF060C090F0AE
:100DA00061C091F062C092F063C093F02D0E84ECAC
:100DB0000CF0000193BFB9D09351921106E1E90EF6
:100DC000905D030E9159D8A0B0D093BF5BD09351E2
:100DD000921106E1110E905D270E9159D8A052D0C4
:100DE000A00E646F860E656F010E666F000E676F52
:100DF00090C060F091C061F092C062F093C063F067
:100E00006BEC0BF060C08CF061C08DF062C08EF0B6
:100E100063C08FF0100E0001646F270E656F000E27
:100E2000666F000E676F90C060F091C061F092C075
:100E300062F093C063F06BEC0BF00001601F611F68
:100E4000621F631F602B000E6123622363236051C6
:100E50008C256A6F61518D216B6F62518E216C6F91
:100E600063518F216D6F100E6E6F270E6F6F000E26
:100E7000706F000E716FACEC0AF000016A51300F18
:100E800084EC0CF0100E0001646F270E656F000EED
:100E9000666F000E676F90C060F091C061F092C005
:100EA00062F093C063F06BEC0BF060C08CF061C03B
:100EB0008DF062C08EF063C08FF0E80E0001646FA9
:100EC000030E656F000E666F000E676F90C060F0D6
:100ED00091C061F092C062F093C063F06BEC0BF0D4
:100EE0000001601F611F621F631F602B000E6123E2
:100EF0006223632360518C256A6F61518D216B6F72
:100F000062518E216C6F63518F216D6FE80E6E6F91
:100F1000030E6F6F000E706F000E716FACEC0AF075
:100F200000016A51300F84EC0CF0E80E0001646F90
:100F3000030E656F000E666F000E676F90C060F065
:100F400091C061F092C062F093C063F06BEC0BF063
:100F500060C08CF061C08DF062C08EF063C08FF015
:100F6000640E0001646F000E656F000E666F000E68
:100F7000676F90C060F091C061F092C062F093C062
:100F800063F06BEC0BF00001601F611F621F631FB9
:100F9000602B000E61236223632360518C256A6FEE
:100FA00061518D216B6F62518E216C6F63518F2166
:100FB0006D6F640E6E6F000E6F6F000E706F000E1F
:100FC000716FACEC0AF000016A51300F84EC0CF048
:100FD0002E0E84EC0CF0640E0001646F000E656F41
:100FE000000E666F000E676F90C060F091C061F0F8
:100FF00092C062F093C063F06BEC0BF060C08CF0B9
:1010000061C08DF062C08EF063C08FF00A0E0001E7
:10101000646F000E656F000E666F000E676F90C004
:1010200060F091C061F092C062F093C063F06BEC2D
:101030000BF00001601F611F621F631F602B000E19
:1010400061236223632360518C256A6F61518D2176
:101050006B6F62518E216C6F63518F216D6F0A0E21
:101060006E6F000E6F6F000E706F000E716FACEC44
:101070000AF000016A51300F84EC0CF090C060F06F
:1010800091C061F092C062F093C063F00A0E00015B
:10109000646F000E656F000E666F000E676F6BEC7D
:1010A0000BF000016051300F84EC0CF01200F29450
:1010B000D20ED66E390ED76E000E156E000E166E5D
:1010C000000E176E000E186E000E196E000E1A6ECE
:1010D000000E1B6E000E1C6E000E1D6E000E1E6EAE
:1010E000000E1F6E000E206E000E216E000E226E8E
:1010F000000E236E000E246E000E256E000E266E6E
:10110000000E276E000E286E000E296E000E2A6E4D
:10111000000E2B6E000E2C6E000EF3EC0CF001C0D6
:1011200008F002C009F0010E0B6EF40E0A6E4EECD0
:101130000DF008C00EF009C00FF0030E116E10681C
:10114000ADEC0CF00E5015260F501622000E172293
:10115000000E1822010EF3EC0CF001C008F002C0E2
:1011600009F0010E0B6EF40E0A6E4EEC0DF008C085
:101170000EF009C00FF0030E116E1068ADEC0CF00C
:101180000E5019260F501A22000E1B22000E1C2290
:10119000020EF3EC0CF001C008F002C009F0010EE1
:1011A0000B6EF40E0A6E4EEC0DF008C00EF009C086
:1011B0000FF0030E116E1068ADEC0CF00E501D26F2
:1011C0000F501E22000E1F22000E2022030EF3ECF1
:1011D0000CF001C008F002C009F0010E0B6EF40E15
:1011E0000A6E4EEC0DF008C00EF009C00FF0030EB1
:1011F000116E1068ADEC0CF00E5021260F5022221B
:10120000000E2322000E2422040EF3EC0CF001C089
:1012100008F002C009F0010E0B6EF40E0A6E4EECDF
:101220000DF008C00EF009C00FF0030E116E10682B
:10123000ADEC0CF00E5025260F502622000E272272
:10124000000E2822050EF3EC0CF001C008F002C0DD
:1012500009F0010E0B6EF40E0A6E4EEC0DF008C094
:101260000EF009C00FF0030E116E1068ADEC0CF01B
:101270000E5029260F502A22000E2B22000E2C225F
:1012800012007CC07EF000017F6B806B7B357E3767
:1012900001E37F817E51886F8851D8A409D0000E68
:1012A0007A6F000E7B6F000E7C6F000E7D6F120058
:1012B000170E7E6F7AC07FF07BC080F07CC081F01B
:1012C0007E29826F04D0D890813380337F33822F80
:1012D000FAD700017F51836F7B8FFF0E7A17FF0EC5
:1012E0007B17000E7C177A51846F7B51856F7C5180
:1012F000866F876B8E0E885F88AF16D08851800A04
:101300008F0FD8B009D0000E7A6F000E7B6F000EE1
:101310007C6F000E7D6F1200D89087338633853343
:101320008433883FF9D715D0170E88650FD0000E8B
:101330007A6F000E7B6F000E7C6F000E7D6F1200C7
:10134000D890843785378637873788078851D8A45F
:10135000F7D78351D8B408D0871F861F851F846DA7
:10136000000E85238623872384C07AF085C07BF016
:1013700086C07CF087C07DF012006DC071F0000166
:10138000726B736B6C35713701E372817151746FDD
:101390007451D8A407D0000E6B6F000E6C6F000E56
:1013A0006D6F120070C071F0726B736B6F357137B7
:1013B00001E372817151796F7951D8A407D0000E81
:1013C0006B6F000E6C6F000E6D6F120079517B0F0A
:1013D00074276DC079F07051791B800E79176C8F6E
:1013E0006F8FFF0E6E17FF0E6F17000E7017000E37
:1013F000756F000E766F000E776F070E786F6BA11A
:1014000006D06E5175276F51762370517723D8908F
:101410006D336C336B33D8906E376F377037782FEE
:10142000EED7090E786F6BA106D06E5175276F51FC
:10143000762370517723D8906D336C336B33D8900B
:10144000773376337533782FEED775C060F076C07A
:1014500061F077C062F074C063F079C064F013EC9F
:101460000BF060C06BF061C06CF062C06DF01200F8
:101470007CC080F00001816B826B7B35803701E39B
:1014800081818051876F8751D8A407D0000E7A6F71
:10149000000E7B6F000E7C6F12007FC080F0816BAE
:1014A000826B7E35803701E381818051886F88515E
:1014B000D8A407D0000E7A6F000E7B6F000E7C6FF1
:1014C0001200000E846F000E856F000E866F88512B
:1014D000890F875F7CC088F07F51881B800E88173A
:1014E0007B8FFF0E7A17FF0E7B17000E7C177E8F07
:1014F000FF0E7D17FF0E7E17000E7F17180E836FED
:10150000D8908437853786377D517A5D7E517B59F7
:101510007F517C59D8A007D07D517A5F7E517B5B8B
:101520007F517C5B8481D8907A377B377C37832FDF
:10153000E7D784C060F085C061F086C062F087C0E4
:1015400063F088C064F013EC0BF060C07AF061C007
:101550007BF062C07CF01200000E0001736F71AF6F
:101560000AD0711F701F6F1F6E6D000E6F237023E6
:101570007123010E736F6DAF0AD06D1F6C1F6B1F4F
:101580006A6D000E6B236C236D23010E731B000E1E
:10159000746F000E756F000E766F000E776F6E51D0
:1015A0006F1170117111D8B42AD0010E726F06D06C
:1015B000D8906E376F3770377137722B71AFF8D79D
:1015C000D89074377537763777376E516A5D6F51BB
:1015D0006B5970516C5971516D59D8A009D06E5129
:1015E0006A5F6F516B5B70516C5B71516D5B7481A5
:1015F000D890713370336F336E33722FE1D77351DC
:10160000D8B408D0771F761F751F746D000E752330
:101610007623772374C06AF075C06BF076C06CF0E7
:1016200077C06DF0120000016351D8B405D060514D
:1016300061116211D8A40CD0000E606F000E616FB2
:10164000000E626F1200632BD890623361336033F7
:10165000000E6015656F000E6115666FFE0E621557
:10166000676F655166116711D8B40CD0ECD7632B46
:10167000010E6027000E6123000E6223D8906233B2
:1016800061336033000E6015656F000E6115666F83
:10169000FF0E6215676F655166116711D8B406D0E9
:1016A000E6D76307D89060376137623761BF03D0F0
:1016B000020E6361F6D763A1619FD89063336351D3
:1016C00062136451D8A4628F60C060F061C061F0A1
:1016D00062C062F01200000E0001696F63AF0AD0B1
:1016E000631F621F611F606D000E6123622363230D
:1016F000010E696F67AF08D0671F661F651F646DB5
:10170000000E652366236723645165116611671116
:10171000D8B424D0010E686F06D0D89064376537EE
:1017200066376737682B67AFF8D76451605D6551DE
:1017300061596651625967516359D8A008D0645104
:10174000605F6551615B6651625B6751635BD89016
:101750006733663365336433682FE7D76951D8B48C
:1017600008D0631F621F611F606D000E612362233A
:10177000632360C060F061C061F062C062F063C06A
:1017800063F012000600FACF2DF0FBCF2EF0E9CF68
:101790002FF0EACF30F0E1CF31F0E2CF32F0D9CF05
:1017A00033F0DACF34F0F3CF35F0F4CF36F0F6CFB4
:1017B00037F0F7CF38F0F8CF39F0F5CF3AF03FC037
:1017C0003BF040C03CF041C03DF042C03EF0F2B4BE
:1017D00057EC08F03EC042F03DC041F03CC040F044
:1017E0003BC03FF03AC0F5FF39C0F8FF38C0F7FF03
:1017F00037C0F6FF36C0F4FF35C0F3FF34C0DAFF60
:1018000033C0D9FF32C0E2FF31C0E1FF30C0EAFF90
:101810002FC0E9FF2EC0FBFF2DC0FAFF3F92110041
:101820006D50070EB46EF80E946E010E956E0F0E8D
:10183000966EBF0E926E090EC16E850EC06EC00E02
:10184000936E8A9A8A98020E0001646F040E636F89
:10185000BA0EE82EFED7632FFCD7642FFAD700F01C
:10186000020E84EC0CF01A0E0001636FF80EE82EE5
:10187000FED7632FFCD700F0280E84EC0CF0010E8D
:1018800084EC0CF00C0E84EC0CF0060E84EC0CF0E6
:1018900061EC0DF00C0E84EC0CF0070ED56EE00E32
:1018A000F26E8C50010B8C6E8B50F80B8B6E12000D
:1018B000000E0001686F000E696F000E6A6F000E67
:1018C0006B6F60A108D06451682765516923665128
:1018D0006A2367516B23D89064376537663767375B
:1018E000D8906333623361336033605161116211A8
:1018F0006311D8A4E6D768C060F069C061F06AC01F
:1019000062F06BC063F012000001616F61C060F0B3
:101910000001603B0F0E60170F0E60178A50F00B2E
:1019200060118A6E7EEC0DF0060EE82EFED700D018
:1019300061C060F00F0E000160178A50F00B60115B
:101940008A6E7EEC0DF01A0E0001606FF80EE82E24
:10195000FED7602FFCD700F01200000E136E000EB1
:10196000126E10501110D8B41CD0010E146E04D099
:10197000D89010361136142A11AEFAD7D8901236F4
:10198000133610500E5C11500F58D8A005D01050CF
:101990000E5E11500F5A1280D89011321032142E50
:1019A000EDD712C00EF013C00FF012000001646FEB
:1019B00000016445E846FC0B0109C26EC282C2B256
:1019C000FED7C450030B0001656FC3CF66F06651AC
:1019D00065C062F0636B62C063F0626B6211606F3E
:1019E0006351616F1200056E0544E846FC0B010966
:1019F000C26EC282C2B2FED7C450030B066EC3CF02
:101A000007F0075006C003F0046A03C004F0036A3D
:101A10000310016E0450026E12008A880BD062C05F
:101A2000F6FF63C0F7FF0800F55084EC0CF00001EE
:101A3000624B632B62C0F6FF63C0F7FF0800F550EE
:101A40000009D8B41200EBD78A880BD062C0F6FF29
:101A500063C0F7FF0800F55084EC0CF00001624B06
:101A6000632B62C0F6FF63C0F7FF0800F550000962
:101A7000D8B41200EBD768C060F069C061F0000113
:101A8000626B8E0E636F000E646F13EC0BF060C020
:101A900068F061C069F062C06AF0120008500A0282
:101AA000F3CF0CF0F4CF0DF008500B02F3500D26DD
:101AB00009500A02F3500D260CC008F00DC009F0C1
:101AC00012008A98010E84EC0CF00B0E0001626F7C
:101AD000620EE82EFED7622FFCD700F01200000144
:101AE000626F8A980001625184EC0CF012003F9002
:101AF0003F92000EF86E00012BEF04F08A8A8A9A5A
:021B00001200D1
:020000040020DA
:08000000FFFFFFFFFFFFFFFF00
:020000040030CA
:0E000000030C1E1EFF8301FF0FC00FE00F4018
:00000001FF
