:0400000007EF00F016
:0A000800588222ED0BF0B1EF0CF06E
:1008000000546573746520436F6E762E2041444317
:10081000200053696E616C204972200053696E613B
:100820006C205672200053696E616C204973200061
:1008300053696E616C205673200053696E616C20A1
:100840004974200053696E616C2056742000560074
:0108500000A7
:10085200150E0201356F4B0E346FBE0EE82EFED719
:10086200342FFCD7352FFAD700F0150E0201356F61
:100872004B0E346FBE0EE82EFED7342FFCD7352F29
:10088200FAD700F0150E0201356F4B0E346FBE0E13
:10089200E82EFED7342FFCD7352FFAD700F070ECB4
:1008A2000BF0150E0201356F4B0E346FBE0EE82EA3
:1008B200FED7342FFCD7352FFAD700F0150E0201E0
:1008C200356F4B0E346FBE0EE82EFED7342FFCD799
:1008D200352FFAD700F09BEC0CF0010E72EC0CF005
:1008E200800EA9EC0CF0010E0201026F080E036FDC
:1008F2005BEC0CF0000E02010E6FA00E0F6F400EAB
:10090200106F000E0DEC0CF000C208F201C209F2E9
:1009120088EC0CF008C20BF209C20CF20AC20DF20A
:10092200A8EC08F00BC21AF20CC21BF20DC21CF2A8
:10093200C00E02011D6F7F0E1E6F440E1F6F98ECDA
:1009420009F01AC236F21BC237F21CC238F2C00ECC
:10095200A9EC0CF0120E0201026F080E036F44ECB8
:100962000CF036C229F237C22AF238C22BF26EECF0
:1009720006F04E0E0201026F080E036F44EC0CF0FB
:10098200150E0201356F4B0E346FBE0EE82EFED7E8
:10099200342FFCD7352FFAD700F0000E02010E6F6C
:1009A200A00E0F6F400E106F010E0DEC0CF000C286
:1009B20008F201C209F288EC0CF008C20BF209C27B
:1009C2000CF20AC20DF2A8EC08F00BC21AF20CC229
:1009D2001BF20DC21CF2C00E02011D6F7F0E1E6FB4
:1009E200440E1F6F98EC09F01AC236F21BC237F29E
:1009F2001CC238F2C00EA9EC0CF0260E0201026FE6
:100A0200080E036F44EC0CF036C229F237C22AF208
:100A120038C22BF26EEC06F04E0E0201026F080E87
:100A2200036F44EC0CF0150E0201356F4B0E346F60
:100A3200BE0EE82EFED7342FFCD7352FFAD700F0A2
:100A4200000E02010E6FA00E0F6F400E106F020E0D
:100A52000DEC0CF000C208F201C209F288EC0CF0B5
:100A620008C20BF209C20CF20AC20DF2A8EC08F09D
:100A72000BC21AF20CC21BF20DC21CF2C00E020112
:100A82001D6F7F0E1E6F440E1F6F98EC09F01AC285
:100A920036F21BC237F21CC238F2C00EA9EC0CF0BF
:100AA2003A0E0201026F080E036F44EC0CF036C2DC
:100AB20029F237C22AF238C22BF26EEC06F04E0E41
:100AC2000201026F080E036F44EC0CF0150E0201D6
:100AD200356F4B0E346FBE0EE82EFED7342FFCD787
:100AE200352FFAD700F0000E02010E6FA00E0F6F25
:100AF200400E106F030E0DEC0CF000C208F201C2A2
:100B020009F288EC0CF008C20BF209C20CF20AC21C
:100B12000DF2A8EC08F00BC21AF20CC21BF20DC2C5
:100B22001CF2C00E02011D6F7F0E1E6F440E1F6F5E
:100B320098EC09F01AC236F21BC237F21CC238F224
:100B4200C00EA9EC0CF01C0E0201026F080E036F1E
:100B520044EC0CF036C229F237C22AF238C22BF228
:100B62006EEC06F04E0E0201026F080E036F44ECAB
:100B72000CF0150E0201356F4B0E346FBE0EE82ECF
:100B8200FED7342FFCD7352FFAD700F0000E020122
:100B92000E6FA00E0F6F400E106F040E0DEC0CF0D6
:100BA20000C208F201C209F288EC0CF008C20BF292
:100BB20009C20CF20AC20DF2A8EC08F00BC21AF23A
:100BC2000CC21BF20DC21CF2C00E02011D6F7F0E81
:100BD2001E6F440E1F6F98EC09F01AC236F21BC248
:100BE20037F21CC238F2C00EA9EC0CF0300E020132
:100BF200026F080E036F44EC0CF036C229F237C2C2
:100C02002AF238C22BF26EEC06F04E0E0201026F8F
:100C1200080E036F44EC0CF0150E0201356F4B0EFB
:100C2200346FBE0EE82EFED7342FFCD7352FFAD7FD
:100C320000F0000E02010E6FA00E0F6F400E106F3B
:100C4200050E0DEC0CF000C208F201C209F288ECAC
:100C52000CF008C20BF209C20CF20AC20DF2A8ECA7
:100C620008F00BC21AF20CC21BF20DC21CF2C00E2B
:100C720002011D6F7F0E1E6F440E1F6F98EC09F06C
:100C82001AC236F21BC237F21CC238F2C00EA9ECED
:100C92000CF0440E0201026F080E036F44EC0CF0DC
:100CA20036C229F237C22AF238C22BF26EEC06F0B3
:100CB2004E0E0201026F080E036F44EC0CF0150E8B
:100CC2000201356F4B0E346FBE0EE82EFED7342F65
:100CD200FCD7352FFAD700F003D68A88000E02011E
:100CE2000E6FC80E0F6F420E106F29C20BF22AC28E
:100CF2000CF22BC20DF2A8EC08F00BC21AF20CC2D5
:100D02001BF20DC21CF22CEC08F01AC230F21BC20C
:100D120031F21CC232F21DC233F202012BAF1DD0DE
:100D220030C200F231C201F232C202F233C203F225
:100D3200FF0E046FFF0E056FFF0E066FFF0E076FAB
:100D4200B8EC0BF000C230F201C231F202C232F250
:100D520003C233F22D0EE4EC0BF0020133BFB9D023
:100D62003351321106E1E90E305D030E3159D8A03C
:100D7200B0D033BF5BD03351321106E1110E305D7A
:100D8200270E3159D8A052D0A00E046F860E056FDF
:100D9200010E066F000E076F30C200F231C201F27F
:100DA20032C202F233C203F2CBEC0AF000C22CF2DE
:100DB20001C22DF202C22EF203C22FF2100E020164
:100DC200046F270E056F000E066F000E076F30C20C
:100DD20000F231C201F232C202F233C203F2CBECB0
:100DE2000AF00201001F011F021F031F002B000E49
:100DF20001230223032300512C250A6F01512D21C7
:100E02000B6F02512E210C6F03512F210D6F100E0B
:100E12000E6F270E0F6F000E106F000E116F0CEC8D
:100E22000AF002010A51300FE4EC0BF0100E02013D
:100E3200046F270E056F000E066F000E076F30C29B
:100E420000F231C201F232C202F233C203F2CBEC3F
:100E52000AF000C22CF201C22DF202C22EF203C22B
:100E62002FF2E80E0201046F030E056F000E066FEB
:100E7200000E076F30C200F231C201F232C202F23A
:100E820033C203F2CBEC0AF00201001F011F021F62
:100E9200031F002B000E01230223032300512C25E4
:100EA2000A6F01512D210B6F02512E210C6F03513C
:100EB2002F210D6FE80E0E6F030E0F6F000E106FD5
:100EC200000E116F0CEC0AF002010A51300FE4EC33
:100ED2000BF0E80E0201046F030E056F000E066FA1
:100EE200000E076F30C200F231C201F232C202F2CA
:100EF20033C203F2CBEC0AF000C22CF201C22DF293
:100F020002C22EF203C22FF2640E0201046F000E1F
:100F1200056F000E066F000E076F30C200F231C27D
:100F220001F232C202F233C203F2CBEC0AF0020146
:100F3200001F011F021F031F002B000E01230223AB
:100F4200032300512C250A6F01512D210B6F0251F1
:100F52002E210C6F03512F210D6F640E0E6F000EA8
:100F62000F6F000E106F000E116F0CEC0AF00201F1
:100F72000A51300FE4EC0BF02E0EE4EC0BF0640E91
:100F82000201046F000E056F000E066F000E076F60
:100F920030C200F231C201F232C202F233C203F2B3
:100FA200CBEC0AF000C22CF201C22DF202C22EF2E8
:100FB20003C22FF20A0E0201046F000E056F000E2B
:100FC200066F000E076F30C200F231C201F232C268
:100FD20002F233C203F2CBEC0AF00201001F011F3E
:100FE200021F031F002B000E0123022303230051C3
:100FF2002C250A6F01512D210B6F02512E210C6FEE
:1010020003512F210D6F0A0E0E6F000E0F6F000E8F
:10101200106F000E116F0CEC0AF002010A51300F32
:10102200E4EC0BF030C200F231C201F232C202F241
:1010320033C203F20A0E0201046F000E056F000EA6
:10104200066F000E076FCBEC0AF002010051300F61
:10105200E4EC0BF012001CC21EF202011F6B206BAB
:101062001B351E3701E31F811E51286F2851D8A45A
:1010720009D0000E1A6F000E1B6F000E1C6F000EBF
:101082001D6F1200170E1E6F1AC21FF21BC220F232
:101092001CC221F21E29226F04D0D89021332033A2
:1010A2001F33222FFAD702011F51236F1B8FFF0E0E
:1010B2001A17FF0E1B17000E1C171A51246F1B5113
:1010C200256F1C51266F276B8E0E285F28AF16D016
:1010D2002851800A8F0FD8B009D0000E1A6F000E67
:1010E2001B6F000E1C6F000E1D6F1200D89027336D
:1010F200263325332433283FF9D715D0170E286518
:101102000FD0000E1A6F000E1B6F000E1C6F000E28
:101112001D6F1200D8902437253726372737280726
:101122002851D8A4F7D72351D8B408D0271F261F97
:10113200251F246D000E25232623272324C21AF2FD
:1011420025C21BF226C21CF227C21DF212000DC2DA
:1011520011F20201126B136B0C35113701E312818C
:101162001151146F1451D8A407D0000E0B6F000E4A
:101172000C6F000E0D6F120010C211F2126B136B86
:101182000F35113701E312811151196F1951D8A48A
:1011920007D0000E0B6F000E0C6F000E0D6F1200C9
:1011A20019517B0F14270DC219F21051191B800E11
:1011B20019170C8F0F8FFF0E0E17FF0E0F17000E51
:1011C2001017000E156F000E166F000E176F070E28
:1011D200186F0BA106D00E5115270F51162310516F
:1011E2001723D8900D330C330B33D8900E370F37AB
:1011F2001037182FEED7090E186F0BA106D00E511B
:1012020015270F51162310511723D8900D330C3385
:101212000B33D890173316331533182FEED715C268
:1012220000F216C201F217C202F214C203F219C28C
:1012320004F273EC0AF000C20BF201C20CF202C219
:101242000DF21200F294D20ED66E390ED76E000E47
:10125200456E000E446E45BE06D0455067E10A0E4B
:10126200445CD8B01200000E2AEC0CF0D890443442
:10127200D96E4534DA6E080ED926000EDA2201C084
:10128200DEFF02C0DDFF010E2AEC0CF0D8904434E0
:10129200D96E4534DA6E600ED926000EDA2201C00C
:1012A200DEFF02C0DDFF020E2AEC0CF0D8904434BF
:1012B200D96E4534DA6E9C0ED926000EDA2201C0B0
:1012C200DEFF02C0DDFF030E2AEC0CF0D89044349E
:1012D200D96E4534DA6E000ED926010EDA2201C02B
:1012E200DEFF02C0DDFF040E2AEC0CF0D89044347D
:1012F200D96E4534DA6E3C0ED926010EDA2201C0CF
:10130200DEFF02C0DDFF050E2AEC0CF0D89044345B
:10131200D96E4534DA6E780ED926010EDA2201C072
:10132200DEFF02C0DDFF444A452A95D712001CC2E7
:1013320020F20201216B226B1B35203701E3218150
:101342002051276F2751D8A407D0000E1A6F000E24
:101352001B6F000E1C6F12001FC220F2216B226B4A
:101362001E35203701E321812051286F2851D8A44E
:1013720007D0000E1A6F000E1B6F000E1C6F1200BA
:10138200000E246F000E256F000E266F2851890F64
:10139200275F1CC228F21F51281B800E28171B8FA3
:1013A200FF0E1A17FF0E1B17000E1C171E8FFF0EC3
:1013B2001D17FF0E1E17000E1F17180E236FD89051
:1013C2002437253726371D511A5D1E511B591F51CF
:1013D2001C59D8A007D01D511A5F1E511B5B1F510B
:1013E2001C5B2481D8901A371B371C37232FE7D771
:1013F20024C200F225C201F226C202F227C203F27F
:1014020028C204F273EC0AF000C21AF201C21BF203
:1014120002C21CF21200000E0201136F11AF0AD0B9
:10142200111F101F0F1F0E6D000E0F23102311230B
:10143200010E136F0DAF0AD00D1F0C1F0B1F0A6D8B
:10144200000E0B230C230D23010E131B000E146F31
:10145200000E156F000E166F000E176F0E510F1152
:1014620010111111D8B42AD0010E126F06D0D890E3
:101472000E370F3710371137122B11AFF8D7D8901C
:1014820014371537163717370E510A5D0F510B599E
:1014920010510C5911510D59D8A009D00E510A5FA3
:1014A2000F510B5B10510C5B11510D5B1481D890E5
:1014B200113310330F330E33122FE1D71351D8B437
:1014C20008D0171F161F151F146D000E15231623A3
:1014D200172314C20AF215C20BF216C20CF217C27B
:1014E2000DF2120002010351D8B405D000510111CE
:1014F2000211D8A40CD0000E006F000E016F000E76
:10150200026F1200032BD890023301330033000E16
:101512000015056F000E0115066FFE0E0215076F0E
:10152200055106110711D8B40CD0ECD7032B010ECC
:101532000027000E0123000E0223D890023301334C
:101542000033000E0015056F000E0115066FFF0E29
:101552000215076F055106110711D8B406D0E6D758
:101562000307D89000370137023701BF03D0020EBC
:101572000361F6D703A1019FD890033303510213ED
:101582000451D8A4028F00C200F201C201F202C2C9
:1015920002F21200000E0201096F03AF0AD0031F0C
:1015A200021F011F006D000E012302230323010EFF
:1015B200096F07AF08D0071F061F051F046D000E35
:1015C2000523062307230451051106110711D8B478
:1015D20024D0010E086F06D0D8900437053706379D
:1015E2000737082B07AFF8D70451005D05510159A1
:1015F2000651025907510359D8A008D00451005F7F
:101602000551015B0651025B0751035BD89007331A
:10161200063305330433082FE7D70951D8B408D06D
:10162200031F021F011F006D000E0123022303236B
:1016320000C200F201C201F202C202F203C203F2CC
:1016420012000600FACF46F0FBCF47F0E9CF48F090
:10165200EACF49F0E1CF4AF0E2CF4BF0D9CF4CF0DC
:10166200DACF4DF0F3CF4EF0F4CF4FF0F6CF50F08B
:10167200F7CF51F0F8CF52F0F5CF53F058C054F0F5
:1016820059C055F05AC056F05BC057F0F2B423EC83
:1016920009F057C05BF056C05AF055C059F054C01B
:1016A20058F053C0F5FF52C0F8FF51C0F7FF50C0C9
:1016B200F6FF4FC0F4FF4EC0F3FF4DC0DAFF4CC03F
:1016C200D9FF4BC0E2FF4AC0E1FF49C0EAFF48C070
:1016D200E9FF47C0FBFF46C0FAFF589211006D5068
:1016E200070EB46EF80E946E010E956E0F0E966E86
:1016F200BF0E926E090EC16E850EC06EC00E936E45
:101702008A9A8A98020E0201046F040E036FBA0EBF
:10171200E82EFED7032FFCD7042FFAD700F0020ED3
:10172200E4EC0BF01A0E0201036FF80EE82EFED75E
:10173200032FFCD700F0280EE4EC0BF0010EE4ECD2
:101742000BF00C0EE4EC0BF0060EE4EC0BF09BEC51
:101752000CF00C0EE4EC0BF0070ED56EE00EF26E00
:101762008C50010B8C6E8B50F80B8B6E1200000E9E
:101772000201086F000E096F000E0A6F000E0B6F58
:1017820000A108D0045108270551092306510A2354
:1017920007510B23D8900437053706370737D890FF
:1017A20003330233013300330051011102110311DB
:1017B200D8A4E6D708C200F209C201F20AC202F2B4
:1017C2000BC203F212000201016F01C200F2020118
:1017D200003B0F0E00170F0E00178A50F00B00117E
:1017E2008A6EB8EC0CF0060EE82EFED700D001C2CD
:1017F20000F20F0E020100178A50F00B00118A6EE0
:10180200B8EC0CF01A0E0201006FF80EE82EFED7AB
:10181200002FFCD700F012000201046F0201044500
:10182200E846FC0B0109C26EC282C2B2FED7C450A6
:10183200030B0201056FC3CF06F2065105C202F285
:10184200036B02C203F2026B0211006F0351016FBC
:101852001200056E0544E846FC0B0109C26EC28205
:10186200C2B2FED7C450030B066EC3CF07F00750B7
:1018720006C003F0046A03C004F0036A0310016E99
:101882000450026E12008A880BD002C2F6FF03C215
:10189200F7FF0800F550E4EC0BF00201024B032BBA
:1018A20002C2F6FF03C2F7FF0800F5500009D8B4E0
:1018B2001200EBD78A880BD002C2F6FF03C2F7FFF1
:1018C2000800F550E4EC0BF00201024B032B02C2BC
:1018D200F6FF03C2F7FF0800F5500009D8B4120062
:1018E200EBD70201006F02010051D8A408D0D550F5
:1018F2007F0BD56E000ED66E000ED76E1200D20E82
:10190200D66E390ED76ED5508009D56E120008C238
:1019120000F209C201F20201026B8E0E036F000E89
:10192200046F73EC0AF000C208F201C209F202C2AB
:101932000AF212008A98010EE4EC0BF00B0E02017F
:10194200026F620EE82EFED7022FFCD700F01200C3
:101952000201026F8A9802010251E4EC0BF01200BC
:1019620058905892000EF86E000129EF04F08A8A0E
:041972008A9A12003B
:020000040020DA
:08000000FFFFFFFFFFFFFFFF00
:020000040030CA
:0E000000030C1E1EFF8301FF0FC00FE00F4018
:00000001FF
